{
  "contractName": "PePointContract",
  "abi": [
    {
      "constant": false,
      "inputs": [
        {
          "name": "_addressRetailer",
          "type": "address"
        }
      ],
      "name": "getScoreCustomerFromCustomer",
      "outputs": [
        {
          "name": "",
          "type": "bytes32"
        },
        {
          "name": "",
          "type": "bytes32"
        }
      ],
      "payable": false,
      "stateMutability": "nonpayable",
      "type": "function"
    },
    {
      "constant": false,
      "inputs": [
        {
          "name": "_addressUser",
          "type": "address"
        }
      ],
      "name": "getPublicKeyUser",
      "outputs": [
        {
          "name": "",
          "type": "bytes32"
        }
      ],
      "payable": false,
      "stateMutability": "nonpayable",
      "type": "function"
    },
    {
      "constant": false,
      "inputs": [
        {
          "name": "_addressCustomer",
          "type": "address"
        }
      ],
      "name": "getScoreCustomerFromRetailer",
      "outputs": [
        {
          "name": "",
          "type": "bytes32"
        }
      ],
      "payable": false,
      "stateMutability": "nonpayable",
      "type": "function"
    },
    {
      "constant": false,
      "inputs": [
        {
          "name": "_pubKey",
          "type": "bytes32"
        },
        {
          "name": "_isCustomer",
          "type": "bool"
        }
      ],
      "name": "createUser",
      "outputs": [],
      "payable": false,
      "stateMutability": "nonpayable",
      "type": "function"
    },
    {
      "constant": false,
      "inputs": [
        {
          "name": "_addressCustomer",
          "type": "address"
        },
        {
          "name": "_totalScoreEncryptCusPubKey",
          "type": "bytes32"
        },
        {
          "name": "_totalScoreEncryptRetPubKey",
          "type": "bytes32"
        },
        {
          "name": "_scoreChangeEncCusPubkey",
          "type": "bytes32"
        },
        {
          "name": "_scoreChangeEncRetPubkey",
          "type": "bytes32"
        },
        {
          "name": "_hashPoint",
          "type": "bytes32"
        }
      ],
      "name": "updateScoreToCustomer",
      "outputs": [],
      "payable": false,
      "stateMutability": "nonpayable",
      "type": "function"
    },
    {
      "inputs": [],
      "payable": false,
      "stateMutability": "nonpayable",
      "type": "constructor"
    }
  ],
  "bytecode": "0x6060604052341561000f57600080fd5b6106048061001e6000396000f30060606040526004361061006d576000357c0100000000000000000000000000000000000000000000000000000000900463ffffffff16806329e245a51461007257806341881b3b146100d657806354948e491461012b5780639506361614610180578063ca9f5e8b146101b2575b600080fd5b341561007d57600080fd5b6100a9600480803573ffffffffffffffffffffffffffffffffffffffff1690602001909190505061022c565b60405180836000191660001916815260200182600019166000191681526020019250505060405180910390f35b34156100e157600080fd5b61010d600480803573ffffffffffffffffffffffffffffffffffffffff1690602001909190505061033e565b60405180826000191660001916815260200191505060405180910390f35b341561013657600080fd5b610162600480803573ffffffffffffffffffffffffffffffffffffffff16906020019091905050610389565b60405180826000191660001916815260200191505060405180910390f35b341561018b57600080fd5b6101b06004808035600019169060200190919080351515906020019091905050610415565b005b34156101bd57600080fd5b61022a600480803573ffffffffffffffffffffffffffffffffffffffff1690602001909190803560001916906020019091908035600019169060200190919080356000191690602001909190803560001916906020019091908035600019169060200190919050506104a5565b005b600080600160008473ffffffffffffffffffffffffffffffffffffffff1673ffffffffffffffffffffffffffffffffffffffff16815260200190815260200160002060000160003373ffffffffffffffffffffffffffffffffffffffff1673ffffffffffffffffffffffffffffffffffffffff16815260200190815260200160002060000154600160008573ffffffffffffffffffffffffffffffffffffffff1673ffffffffffffffffffffffffffffffffffffffff16815260200190815260200160002060000160003373ffffffffffffffffffffffffffffffffffffffff1673ffffffffffffffffffffffffffffffffffffffff1681526020019081526020016000206002015491509150915091565b60008060008373ffffffffffffffffffffffffffffffffffffffff1673ffffffffffffffffffffffffffffffffffffffff168152602001908152602001600020600001549050919050565b6000600160003373ffffffffffffffffffffffffffffffffffffffff1673ffffffffffffffffffffffffffffffffffffffff16815260200190815260200160002060000160008373ffffffffffffffffffffffffffffffffffffffff1673ffffffffffffffffffffffffffffffffffffffff168152602001908152602001600020600101549050919050565b6040805190810160405280836000191681526020018215158152506000803373ffffffffffffffffffffffffffffffffffffffff1673ffffffffffffffffffffffffffffffffffffffff1681526020019081526020016000206000820151816000019060001916905560208201518160010160006101000a81548160ff0219169083151502179055509050505050565b6000600160003373ffffffffffffffffffffffffffffffffffffffff1673ffffffffffffffffffffffffffffffffffffffff1681526020019081526020016000209050858160000160008973ffffffffffffffffffffffffffffffffffffffff1673ffffffffffffffffffffffffffffffffffffffff1681526020019081526020016000206000018160001916905550848160000160008973ffffffffffffffffffffffffffffffffffffffff1673ffffffffffffffffffffffffffffffffffffffff1681526020019081526020016000206001018160001916905550818160000160008973ffffffffffffffffffffffffffffffffffffffff1673ffffffffffffffffffffffffffffffffffffffff1681526020019081526020016000206002018160001916905550505050505050505600a165627a7a72305820c59afbec2ba6aca005f2ae5e14316a9d991ae31e92d54df73a4693a372beee4d0029",
  "source": "pragma solidity ^0.4.17;\n\ncontract PePointContract {\n    struct UserInfo {\n        bytes32 pubKey;\n        bool isCustomer;\n    }\n\n    struct PointInfo {\n        bytes32 pointCustomer;\n        bytes32 pointRetailer;\n\n        //we can add hash of score to verify from customer and retailer\n        //retailer hash point before encrypt => customer decrypt the point, \n        //=> hash the point and compare with the hash of retailer\n        bytes32 pointHashRetailer;\n    }\n\n    struct CustomerPointInfo {\n        mapping (address => PointInfo) mPointCustomer;\n    }\n\n    mapping(address => UserInfo) private mUserInfoManager;\n\n    mapping(address => CustomerPointInfo) mRetailerManagerPoint;\n\n    function PePointContract() {\n        \n    }\n\n\n    //creater user (customer and retailer) with public key\n    function createUser (bytes32 _pubKey, bool _isCustomer) {\n        //save user info to mapping\n        mUserInfoManager[msg.sender] = UserInfo(_pubKey, _isCustomer);\n    }\n\n    //get public key of a user\n    //retailer can get\n    function getPublicKeyUser (address _addressUser) returns (bytes32) {\n        return mUserInfoManager[_addressUser].pubKey;\n    }\n\n    //retailer update the customer point \n    function updateScoreToCustomer (address _addressCustomer, bytes32 _totalScoreEncryptCusPubKey, \n                                    bytes32 _totalScoreEncryptRetPubKey, bytes32 _scoreChangeEncCusPubkey,\n                                    bytes32 _scoreChangeEncRetPubkey, bytes32 _hashPoint) {\n        CustomerPointInfo storage customerPointData = mRetailerManagerPoint[msg.sender];\n        customerPointData.mPointCustomer[_addressCustomer].pointCustomer = _totalScoreEncryptCusPubKey;\n        customerPointData.mPointCustomer[_addressCustomer].pointRetailer = _totalScoreEncryptRetPubKey;\n        customerPointData.mPointCustomer[_addressCustomer].pointHashRetailer = _hashPoint;\n    }\n\n    //Retailer get the current point of user\n    function getScoreCustomerFromRetailer (address _addressCustomer) returns (bytes32) {\n        return mRetailerManagerPoint[msg.sender].mPointCustomer[_addressCustomer].pointRetailer;\n    }\n\n    //Customer check their point\n    function getScoreCustomerFromCustomer (address _addressRetailer) returns (bytes32, bytes32) {\n        return (mRetailerManagerPoint[_addressRetailer].mPointCustomer[msg.sender].pointCustomer,\n                mRetailerManagerPoint[_addressRetailer].mPointCustomer[msg.sender].pointHashRetailer);\n    }\n\n}",
  "sourcePath": "/Users/zinky/Desktop/Loyalty/blockathon2017-team2/SmartContract/contracts/PePointContract.sol",
  "compiler": {
    "name": "solc",
    "version": "0.4.18+commit.9cf6e910.Emscripten.clang"
  },
  "schemaVersion": "1.0.1",
  "updatedAt": "2017-11-25T09:51:40.212Z"
}